{
  "_format": "hh-sol-artifact-1",
  "contractName": "OnChain",
  "sourceName": "contracts/OnChain.sol",
  "abi": [
    {
      "inputs": [],
      "stateMutability": "nonpayable",
      "type": "constructor"
    },
    {
      "anonymous": false,
      "inputs": [
        {
          "indexed": true,
          "internalType": "address",
          "name": "owner",
          "type": "address"
        },
        {
          "indexed": true,
          "internalType": "address",
          "name": "approved",
          "type": "address"
        },
        {
          "indexed": true,
          "internalType": "uint256",
          "name": "tokenId",
          "type": "uint256"
        }
      ],
      "name": "Approval",
      "type": "event"
    },
    {
      "anonymous": false,
      "inputs": [
        {
          "indexed": true,
          "internalType": "address",
          "name": "owner",
          "type": "address"
        },
        {
          "indexed": true,
          "internalType": "address",
          "name": "operator",
          "type": "address"
        },
        {
          "indexed": false,
          "internalType": "bool",
          "name": "approved",
          "type": "bool"
        }
      ],
      "name": "ApprovalForAll",
      "type": "event"
    },
    {
      "anonymous": false,
      "inputs": [
        {
          "indexed": true,
          "internalType": "address",
          "name": "previousOwner",
          "type": "address"
        },
        {
          "indexed": true,
          "internalType": "address",
          "name": "newOwner",
          "type": "address"
        }
      ],
      "name": "OwnershipTransferred",
      "type": "event"
    },
    {
      "anonymous": false,
      "inputs": [
        {
          "indexed": false,
          "internalType": "address",
          "name": "account",
          "type": "address"
        }
      ],
      "name": "Paused",
      "type": "event"
    },
    {
      "anonymous": false,
      "inputs": [
        {
          "indexed": true,
          "internalType": "address",
          "name": "from",
          "type": "address"
        },
        {
          "indexed": true,
          "internalType": "address",
          "name": "to",
          "type": "address"
        },
        {
          "indexed": true,
          "internalType": "uint256",
          "name": "tokenId",
          "type": "uint256"
        }
      ],
      "name": "Transfer",
      "type": "event"
    },
    {
      "anonymous": false,
      "inputs": [
        {
          "indexed": false,
          "internalType": "address",
          "name": "account",
          "type": "address"
        }
      ],
      "name": "Unpaused",
      "type": "event"
    },
    {
      "inputs": [
        {
          "internalType": "uint256",
          "name": "",
          "type": "uint256"
        }
      ],
      "name": "_attributes",
      "outputs": [
        {
          "internalType": "uint256",
          "name": "fusionCount",
          "type": "uint256"
        },
        {
          "internalType": "string",
          "name": "faction",
          "type": "string"
        },
        {
          "internalType": "string",
          "name": "name",
          "type": "string"
        },
        {
          "internalType": "string",
          "name": "description",
          "type": "string"
        }
      ],
      "stateMutability": "view",
      "type": "function"
    },
    {
      "inputs": [],
      "name": "_base",
      "outputs": [
        {
          "internalType": "string",
          "name": "",
          "type": "string"
        }
      ],
      "stateMutability": "view",
      "type": "function"
    },
    {
      "inputs": [],
      "name": "_berserk",
      "outputs": [
        {
          "internalType": "bool",
          "name": "",
          "type": "bool"
        }
      ],
      "stateMutability": "view",
      "type": "function"
    },
    {
      "inputs": [],
      "name": "_characterized",
      "outputs": [
        {
          "internalType": "bool",
          "name": "",
          "type": "bool"
        }
      ],
      "stateMutability": "view",
      "type": "function"
    },
    {
      "inputs": [
        {
          "internalType": "address",
          "name": "",
          "type": "address"
        }
      ],
      "name": "_hasMinted",
      "outputs": [
        {
          "internalType": "bool",
          "name": "",
          "type": "bool"
        }
      ],
      "stateMutability": "view",
      "type": "function"
    },
    {
      "inputs": [],
      "name": "_maxSupply",
      "outputs": [
        {
          "internalType": "uint256",
          "name": "",
          "type": "uint256"
        }
      ],
      "stateMutability": "view",
      "type": "function"
    },
    {
      "inputs": [],
      "name": "_mintState",
      "outputs": [
        {
          "internalType": "enum OnChain.MintState",
          "name": "",
          "type": "uint8"
        }
      ],
      "stateMutability": "view",
      "type": "function"
    },
    {
      "inputs": [],
      "name": "_reapersRoot",
      "outputs": [
        {
          "internalType": "bytes32",
          "name": "",
          "type": "bytes32"
        }
      ],
      "stateMutability": "view",
      "type": "function"
    },
    {
      "inputs": [
        {
          "internalType": "address",
          "name": "",
          "type": "address"
        }
      ],
      "name": "_stakingAddresses",
      "outputs": [
        {
          "internalType": "bool",
          "name": "",
          "type": "bool"
        }
      ],
      "stateMutability": "view",
      "type": "function"
    },
    {
      "inputs": [
        {
          "internalType": "address",
          "name": "",
          "type": "address"
        },
        {
          "internalType": "uint256",
          "name": "",
          "type": "uint256"
        }
      ],
      "name": "_tokens",
      "outputs": [
        {
          "internalType": "uint256",
          "name": "",
          "type": "uint256"
        }
      ],
      "stateMutability": "view",
      "type": "function"
    },
    {
      "inputs": [],
      "name": "_trickstersRoot",
      "outputs": [
        {
          "internalType": "bytes32",
          "name": "",
          "type": "bytes32"
        }
      ],
      "stateMutability": "view",
      "type": "function"
    },
    {
      "inputs": [
        {
          "internalType": "address",
          "name": "to",
          "type": "address"
        },
        {
          "internalType": "uint256",
          "name": "tokenId",
          "type": "uint256"
        }
      ],
      "name": "approve",
      "outputs": [],
      "stateMutability": "nonpayable",
      "type": "function"
    },
    {
      "inputs": [
        {
          "internalType": "address",
          "name": "owner",
          "type": "address"
        }
      ],
      "name": "balanceOf",
      "outputs": [
        {
          "internalType": "uint256",
          "name": "",
          "type": "uint256"
        }
      ],
      "stateMutability": "view",
      "type": "function"
    },
    {
      "inputs": [
        {
          "internalType": "uint256",
          "name": "tokenId",
          "type": "uint256"
        }
      ],
      "name": "burn",
      "outputs": [],
      "stateMutability": "nonpayable",
      "type": "function"
    },
    {
      "inputs": [
        {
          "internalType": "enum OnChain.MintState",
          "name": "mintState_",
          "type": "uint8"
        }
      ],
      "name": "changeMintState",
      "outputs": [],
      "stateMutability": "nonpayable",
      "type": "function"
    },
    {
      "inputs": [
        {
          "internalType": "uint256[]",
          "name": "indexes_",
          "type": "uint256[]"
        },
        {
          "internalType": "string[]",
          "name": "names_",
          "type": "string[]"
        },
        {
          "internalType": "string[]",
          "name": "descriptions_",
          "type": "string[]"
        }
      ],
      "name": "characterize",
      "outputs": [],
      "stateMutability": "nonpayable",
      "type": "function"
    },
    {
      "inputs": [
        {
          "internalType": "address",
          "name": "proxyAddress_",
          "type": "address"
        }
      ],
      "name": "flipProxyState",
      "outputs": [],
      "stateMutability": "nonpayable",
      "type": "function"
    },
    {
      "inputs": [
        {
          "internalType": "uint256",
          "name": "tokenId",
          "type": "uint256"
        }
      ],
      "name": "getApproved",
      "outputs": [
        {
          "internalType": "address",
          "name": "",
          "type": "address"
        }
      ],
      "stateMutability": "view",
      "type": "function"
    },
    {
      "inputs": [
        {
          "internalType": "address",
          "name": "_owner",
          "type": "address"
        },
        {
          "internalType": "address",
          "name": "operator",
          "type": "address"
        }
      ],
      "name": "isApprovedForAll",
      "outputs": [
        {
          "internalType": "bool",
          "name": "",
          "type": "bool"
        }
      ],
      "stateMutability": "view",
      "type": "function"
    },
    {
      "inputs": [
        {
          "internalType": "bytes32[]",
          "name": "proof_",
          "type": "bytes32[]"
        },
        {
          "internalType": "bytes32",
          "name": "tree_",
          "type": "bytes32"
        },
        {
          "internalType": "address",
          "name": "sender_",
          "type": "address"
        }
      ],
      "name": "isWhitelisted",
      "outputs": [
        {
          "internalType": "bool",
          "name": "",
          "type": "bool"
        }
      ],
      "stateMutability": "pure",
      "type": "function"
    },
    {
      "inputs": [],
      "name": "name",
      "outputs": [
        {
          "internalType": "string",
          "name": "",
          "type": "string"
        }
      ],
      "stateMutability": "view",
      "type": "function"
    },
    {
      "inputs": [],
      "name": "openSeaProxy",
      "outputs": [
        {
          "internalType": "address",
          "name": "",
          "type": "address"
        }
      ],
      "stateMutability": "view",
      "type": "function"
    },
    {
      "inputs": [],
      "name": "owner",
      "outputs": [
        {
          "internalType": "address",
          "name": "",
          "type": "address"
        }
      ],
      "stateMutability": "view",
      "type": "function"
    },
    {
      "inputs": [
        {
          "internalType": "uint256",
          "name": "tokenId",
          "type": "uint256"
        }
      ],
      "name": "ownerOf",
      "outputs": [
        {
          "internalType": "address",
          "name": "",
          "type": "address"
        }
      ],
      "stateMutability": "view",
      "type": "function"
    },
    {
      "inputs": [],
      "name": "pause",
      "outputs": [],
      "stateMutability": "nonpayable",
      "type": "function"
    },
    {
      "inputs": [],
      "name": "paused",
      "outputs": [
        {
          "internalType": "bool",
          "name": "",
          "type": "bool"
        }
      ],
      "stateMutability": "view",
      "type": "function"
    },
    {
      "inputs": [],
      "name": "renounceOwnership",
      "outputs": [],
      "stateMutability": "nonpayable",
      "type": "function"
    },
    {
      "inputs": [
        {
          "internalType": "bytes32[]",
          "name": "proof_",
          "type": "bytes32[]"
        }
      ],
      "name": "safeMint",
      "outputs": [],
      "stateMutability": "nonpayable",
      "type": "function"
    },
    {
      "inputs": [
        {
          "internalType": "address",
          "name": "from",
          "type": "address"
        },
        {
          "internalType": "address",
          "name": "to",
          "type": "address"
        },
        {
          "internalType": "uint256",
          "name": "tokenId",
          "type": "uint256"
        }
      ],
      "name": "safeTransferFrom",
      "outputs": [],
      "stateMutability": "nonpayable",
      "type": "function"
    },
    {
      "inputs": [
        {
          "internalType": "address",
          "name": "from",
          "type": "address"
        },
        {
          "internalType": "address",
          "name": "to",
          "type": "address"
        },
        {
          "internalType": "uint256",
          "name": "tokenId",
          "type": "uint256"
        },
        {
          "internalType": "bytes",
          "name": "_data",
          "type": "bytes"
        }
      ],
      "name": "safeTransferFrom",
      "outputs": [],
      "stateMutability": "nonpayable",
      "type": "function"
    },
    {
      "inputs": [
        {
          "internalType": "address",
          "name": "operator",
          "type": "address"
        },
        {
          "internalType": "bool",
          "name": "approved",
          "type": "bool"
        }
      ],
      "name": "setApprovalForAll",
      "outputs": [],
      "stateMutability": "nonpayable",
      "type": "function"
    },
    {
      "inputs": [
        {
          "internalType": "bool",
          "name": "berserk_",
          "type": "bool"
        }
      ],
      "name": "setBerserk",
      "outputs": [],
      "stateMutability": "nonpayable",
      "type": "function"
    },
    {
      "inputs": [
        {
          "internalType": "uint256",
          "name": "maxSupply_",
          "type": "uint256"
        }
      ],
      "name": "setMaxSupply",
      "outputs": [],
      "stateMutability": "nonpayable",
      "type": "function"
    },
    {
      "inputs": [
        {
          "internalType": "bytes32",
          "name": "reapers_",
          "type": "bytes32"
        },
        {
          "internalType": "bytes32",
          "name": "tricksters_",
          "type": "bytes32"
        }
      ],
      "name": "setRootHashes",
      "outputs": [],
      "stateMutability": "nonpayable",
      "type": "function"
    },
    {
      "inputs": [
        {
          "internalType": "bytes4",
          "name": "interfaceId",
          "type": "bytes4"
        }
      ],
      "name": "supportsInterface",
      "outputs": [
        {
          "internalType": "bool",
          "name": "",
          "type": "bool"
        }
      ],
      "stateMutability": "view",
      "type": "function"
    },
    {
      "inputs": [],
      "name": "symbol",
      "outputs": [
        {
          "internalType": "string",
          "name": "",
          "type": "string"
        }
      ],
      "stateMutability": "view",
      "type": "function"
    },
    {
      "inputs": [
        {
          "internalType": "uint256",
          "name": "tokenId_",
          "type": "uint256"
        }
      ],
      "name": "tokenURI",
      "outputs": [
        {
          "internalType": "string",
          "name": "",
          "type": "string"
        }
      ],
      "stateMutability": "view",
      "type": "function"
    },
    {
      "inputs": [
        {
          "internalType": "address",
          "name": "from",
          "type": "address"
        },
        {
          "internalType": "address",
          "name": "to",
          "type": "address"
        },
        {
          "internalType": "uint256",
          "name": "tokenId",
          "type": "uint256"
        }
      ],
      "name": "transferFrom",
      "outputs": [],
      "stateMutability": "nonpayable",
      "type": "function"
    },
    {
      "inputs": [
        {
          "internalType": "address",
          "name": "newOwner",
          "type": "address"
        }
      ],
      "name": "transferOwnership",
      "outputs": [],
      "stateMutability": "nonpayable",
      "type": "function"
    },
    {
      "inputs": [],
      "name": "unpause",
      "outputs": [],
      "stateMutability": "nonpayable",
      "type": "function"
    },
    {
      "inputs": [],
      "name": "withdraw",
      "outputs": [],
      "stateMutability": "nonpayable",
      "type": "function"
    }
  ],
  "bytecode": "0x610100604052602960a0818152906200338760c03980516200002a9160099160209091019062000168565b50600c8054600160ff199182168117909255612710600d557ff57b2c51ded3a29e6891aba85459d600256cf317000000000000000000000000608052600e805490911690911790553480156200007f57600080fd5b50604080518082018252601181527053656d692d4f6e436861696e2d4669766560781b602080830191825283518085019094526004845263534f433560e01b908401528151919291620000d59160009162000168565b508051620000eb90600190602084019062000168565b50506006805460ff191690555062000103336200010e565b60016007556200024b565b600680546001600160a01b03838116610100818102610100600160a81b031985161790945560405193909204169182907f8be0079c531659141344cd1fd0a4f28419497f9722a3daafe3b4186f6b6457e090600090a35050565b82805462000176906200020e565b90600052602060002090601f0160209004810192826200019a5760008555620001e5565b82601f10620001b557805160ff1916838001178555620001e5565b82800160010185558215620001e5579182015b82811115620001e5578251825591602001919060010190620001c8565b50620001f3929150620001f7565b5090565b5b80821115620001f35760008155600101620001f8565b600181811c908216806200022357607f821691505b602082108114156200024557634e487b7160e01b600052602260045260246000fd5b50919050565b60805160601c613116620002716000396000818161030401526113bc01526131166000f3fe608060405234801561001057600080fd5b50600436106102535760003560e01c80636f8b44b011610146578063b28a1e76116100c3578063e1bb596011610087578063e1bb596014610510578063e985e9c514610523578063eb49c7a614610536578063f2d646a114610548578063f2fde38b1461055b578063f73c814b1461056e57600080fd5b8063b28a1e76146104a1578063b88d4fde146104b4578063c87b56dd146104c7578063cf2a3608146104da578063d92d1bd6146104ed57600080fd5b80638456cb591161010a5780638456cb59146104455780638da5cb5b1461044d57806395d89b4114610463578063a22cb4651461046b578063b13db5761461047e57600080fd5b80636f8b44b01461040157806370a0823114610414578063715018a61461042757806376a342311461042f5780637c361ff91461043857600080fd5b806323b872dd116101d457806342966c681161019857806342966c68146103a35780635a04e497146103b65780635c975abb146103c95780636352211e146103d45780636f3a1b40146103e757600080fd5b806323b872dd146103655780633ccfd60b146103785780633ce68dd5146103805780633f4ba83a1461038857806342842e0e1461039057600080fd5b8063095ea7b31161021b578063095ea7b3146102ec5780630d03c1da146102ff578063180f11d5146103265780631e7a4c201461033957806322f4596f1461035c57600080fd5b8063012461c31461025857806301ef8eb51461027457806301ffc9a71461028957806306fdde03146102ac578063081812fc146102c1575b600080fd5b610261600a5481565b6040519081526020015b60405180910390f35b610287610282366004612988565b610581565b005b61029c610297366004612a59565b6106e7565b604051901515815260200161026b565b6102b4610739565b60405161026b9190612dff565b6102d46102cf366004612acc565b6107cb565b6040516001600160a01b03909116815260200161026b565b6102876102fa3660046128c0565b610860565b6102d47f000000000000000000000000000000000000000000000000000000000000000081565b610287610334366004612a38565b610976565b61029c610347366004612718565b600f6020526000908152604090205460ff1681565b610261600d5481565b610287610373366004612773565b6109b1565b6102876109e3565b6102b4610a6b565b610287610af9565b61028761039e366004612773565b610b33565b6102876103b1366004612acc565b610b4e565b6102616103c43660046128c0565b610bc5565b60065460ff1661029c565b6102d46103e2366004612acc565b610bf6565b600e546103f49060ff1681565b60405161026b9190612dd7565b61028761040f366004612acc565b610c6d565b610261610422366004612718565b610ca2565b610287610d29565b610261600b5481565b600c5461029c9060ff1681565b610287610d63565b60065461010090046001600160a01b03166102d4565b6102b4610d9b565b61028761047936600461288c565b610daa565b61049161048c366004612acc565b610db9565b60405161026b9493929190612eea565b61029c6104af36600461292b565b610f7a565b6102876104c23660046127b3565b610ffa565b6102b46104d5366004612acc565b611032565b6102876104e8366004612aad565b6112f2565b61029c6104fb366004612718565b60116020526000908152604090205460ff1681565b61028761051e366004612a1e565b611357565b61029c61053136600461273b565b61139a565b600c5461029c90610100900460ff1681565b6102876105563660046128eb565b6114a9565b610287610569366004612718565b611897565b61028761057c366004612718565b611935565b6006546001600160a01b036101009091041633146105ba5760405162461bcd60e51b81526004016105b190612e64565b60405180910390fd5b600c805461ff00191661010017905560005b858110156106de578484828181106105f457634e487b7160e01b600052603260045260246000fd5b90506020028101906106069190612f34565b601360008a8a8681811061062a57634e487b7160e01b600052603260045260246000fd5b905060200201358152602001908152602001600020600201919061064f9291906125ac565b5082828281811061067057634e487b7160e01b600052603260045260246000fd5b90506020028101906106829190612f34565b601360008a8a868181106106a657634e487b7160e01b600052603260045260246000fd5b90506020020135815260200190815260200160002060030191906106cb9291906125ac565b50806106d681613023565b9150506105cc565b50505050505050565b60006001600160e01b031982166380ac58cd60e01b148061071857506001600160e01b03198216635b5e139f60e01b145b8061073357506301ffc9a760e01b6001600160e01b03198316145b92915050565b60606000805461074890612fe8565b80601f016020809104026020016040519081016040528092919081815260200182805461077490612fe8565b80156107c15780601f10610796576101008083540402835291602001916107c1565b820191906000526020600020905b8154815290600101906020018083116107a457829003601f168201915b5050505050905090565b6000818152600260205260408120546001600160a01b03166108445760405162461bcd60e51b815260206004820152602c60248201527f4552433732313a20617070726f76656420717565727920666f72206e6f6e657860448201526b34b9ba32b73a103a37b5b2b760a11b60648201526084016105b1565b506000908152600460205260409020546001600160a01b031690565b600061086b82610bf6565b9050806001600160a01b0316836001600160a01b031614156108d95760405162461bcd60e51b815260206004820152602160248201527f4552433732313a20617070726f76616c20746f2063757272656e74206f776e656044820152603960f91b60648201526084016105b1565b336001600160a01b03821614806108f557506108f5813361139a565b6109675760405162461bcd60e51b815260206004820152603860248201527f4552433732313a20617070726f76652063616c6c6572206973206e6f74206f7760448201527f6e6572206e6f7220617070726f76656420666f7220616c6c000000000000000060648201526084016105b1565b610971838361198e565b505050565b6006546001600160a01b036101009091041633146109a65760405162461bcd60e51b81526004016105b190612e64565b600a91909155600b55565b6109bc335b826119fc565b6109d85760405162461bcd60e51b81526004016105b190612e99565b610971838383611acb565b6006546001600160a01b03610100909104163314610a135760405162461bcd60e51b81526004016105b190612e64565b604051600090339047908381818185875af1925050503d8060008114610a55576040519150601f19603f3d011682016040523d82523d6000602084013e610a5a565b606091505b5050905080610a6857600080fd5b50565b60098054610a7890612fe8565b80601f0160208091040260200160405190810160405280929190818152602001828054610aa490612fe8565b8015610af15780601f10610ac657610100808354040283529160200191610af1565b820191906000526020600020905b815481529060010190602001808311610ad457829003601f168201915b505050505081565b6006546001600160a01b03610100909104163314610b295760405162461bcd60e51b81526004016105b190612e64565b610b31611e24565b565b61097183838360405180602001604052806000815250610ffa565b610b57336109b6565b610bbc5760405162461bcd60e51b815260206004820152603060248201527f4552433732314275726e61626c653a2063616c6c6572206973206e6f74206f7760448201526f1b995c881b9bdc88185c1c1c9bdd995960821b60648201526084016105b1565b610a6881611eb7565b60126020528160005260406000208181548110610be157600080fd5b90600052602060002001600091509150505481565b6000818152600260205260408120546001600160a01b0316806107335760405162461bcd60e51b815260206004820152602960248201527f4552433732313a206f776e657220717565727920666f72206e6f6e657869737460448201526832b73a103a37b5b2b760b91b60648201526084016105b1565b6006546001600160a01b03610100909104163314610c9d5760405162461bcd60e51b81526004016105b190612e64565b600d55565b60006001600160a01b038216610d0d5760405162461bcd60e51b815260206004820152602a60248201527f4552433732313a2062616c616e636520717565727920666f7220746865207a65604482015269726f206164647265737360b01b60648201526084016105b1565b506001600160a01b031660009081526003602052604090205490565b6006546001600160a01b03610100909104163314610d595760405162461bcd60e51b81526004016105b190612e64565b610b316000611f52565b6006546001600160a01b03610100909104163314610d935760405162461bcd60e51b81526004016105b190612e64565b610b31611fac565b60606001805461074890612fe8565b610db5338383612027565b5050565b60136020526000908152604090208054600182018054919291610ddb90612fe8565b80601f0160208091040260200160405190810160405280929190818152602001828054610e0790612fe8565b8015610e545780601f10610e2957610100808354040283529160200191610e54565b820191906000526020600020905b815481529060010190602001808311610e3757829003601f168201915b505050505090806002018054610e6990612fe8565b80601f0160208091040260200160405190810160405280929190818152602001828054610e9590612fe8565b8015610ee25780601f10610eb757610100808354040283529160200191610ee2565b820191906000526020600020905b815481529060010190602001808311610ec557829003601f168201915b505050505090806003018054610ef790612fe8565b80601f0160208091040260200160405190810160405280929190818152602001828054610f2390612fe8565b8015610f705780601f10610f4557610100808354040283529160200191610f70565b820191906000526020600020905b815481529060010190602001808311610f5357829003601f168201915b5050505050905084565b6000610fef858580806020026020016040519081016040528093929190818152602001838360200280828437600092019190915250506040516bffffffffffffffffffffffff19606088901b1660208201528792506034019050604051602081830303815290604052805190602001206120f6565b90505b949350505050565b61100433836119fc565b6110205760405162461bcd60e51b81526004016105b190612e99565b61102c8484848461210c565b50505050565b6000818152600260205260409020546060906001600160a01b03166110875760405162461bcd60e51b815260206004820152600b60248201526a1393d391561254d511539560aa1b60448201526064016105b1565b600c54600090610100900460ff166110be5760405180604001604052806007815260200166546f6b656e202360c81b815250611159565b600083815260136020526040902060020180546110da90612fe8565b80601f016020809104026020016040519081016040528092919081815260200182805461110690612fe8565b80156111535780601f1061112857610100808354040283529160200191611153565b820191906000526020600020905b81548152906001019060200180831161113657829003601f168201915b50505050505b600c54909150600090610100900460ff1661118c576040518060600160405280602181526020016130c060219139611227565b600084815260136020526040902060030180546111a890612fe8565b80601f01602080910402602001604051908101604052809291908181526020018280546111d490612fe8565b80156112215780601f106111f657610100808354040283529160200191611221565b820191906000526020600020905b81548152906001019060200180831161120457829003601f168201915b50505050505b600085815260136020526040812054919250906112439061213f565b600086815260136020908152604091829020915161126693926001019101612ce9565b60405160208183030381529060405290506000836112838761213f565b60008881526013602052604090205485906009906112a09061213f565b866040516020016112b696959493929190612bed565b6040516020818303038152906040529050806040516020016112d89190612ba8565b604051602081830303815290604052945050505050919050565b6006546001600160a01b036101009091041633146113225760405162461bcd60e51b81526004016105b190612e64565b600e805482919060ff1916600183600281111561134f57634e487b7160e01b600052602160045260246000fd5b021790555050565b6006546001600160a01b036101009091041633146113875760405162461bcd60e51b81526004016105b190612e64565b600c805460ff1916911515919091179055565b60405163c455279160e01b81526001600160a01b0383811660048301526000917f000000000000000000000000000000000000000000000000000000000000000091848116919083169063c45527919060240160206040518083038186803b15801561140557600080fd5b505afa158015611419573d6000803e3d6000fd5b505050506040513d601f19601f8201168201806040525081019061143d9190612a91565b6001600160a01b0316148061146a57506001600160a01b03831660009081526010602052604090205460ff165b15611479576001915050610733565b50506001600160a01b03918216600090815260056020908152604080832093909416825291909152205460ff1690565b600260075414156114fc5760405162461bcd60e51b815260206004820152601f60248201527f5265656e7472616e637947756172643a207265656e7472616e742063616c6c0060448201526064016105b1565b60026007556000600e5460ff16600281111561152857634e487b7160e01b600052602160045260246000fd5b14156115695760405162461bcd60e51b815260206004820152601060248201526f13525395125391c8111254d05093115160821b60448201526064016105b1565b3360009081526011602052604090205460ff16156115ba5760405162461bcd60e51b815260206004820152600e60248201526d105314915051164813525395115160921b60448201526064016105b1565b6115c333610ca2565b156115ff5760405162461bcd60e51b815260206004820152600c60248201526b414c5245414459204f574e5360a01b60448201526064016105b1565b600061160a60085490565b9050600d54811061164a5760405162461bcd60e51b815260206004820152600a6024820152691053130813525395115160b21b60448201526064016105b1565b611658600880546001019055565b6001600e5460ff16600281111561167f57634e487b7160e01b600052602160045260246000fd5b1415611792576116938383600a5433610f7a565b806116a757506116a78383600b5433610f7a565b6116e55760405162461bcd60e51b815260206004820152600f60248201526e1393d50815d2125511531254d51151608a1b60448201526064016105b1565b6116f38383600a5433610f7a565b1561173e5760408051808201825260078152665265617065727360c81b6020808301918252600085815260139091529290922090516117389260019092019190612630565b50611783565b604080518082018252600a815269547269636b737465727360b01b6020808301918252600085815260139091529290922090516117819260019092019190612630565b505b61178d3382612259565b611858565b6040516bffffffffffffffffffffffff193360601b1660208201526002906034016040516020818303038152906040528051906020012060001c6117d6919061303e565b15611803576040518060400160405280600a815260200169547269636b737465727360b01b815250611824565b604051806040016040528060078152602001665265617065727360c81b8152505b60136000838152602001908152602001600020600101908051906020019061184d929190612630565b506118583382612259565b33600081815260126020908152604080832080546001818101835591855283852001959095559282526011905220805460ff1916821790556007555050565b6006546001600160a01b036101009091041633146118c75760405162461bcd60e51b81526004016105b190612e64565b6001600160a01b03811661192c5760405162461bcd60e51b815260206004820152602660248201527f4f776e61626c653a206e6577206f776e657220697320746865207a65726f206160448201526564647265737360d01b60648201526084016105b1565b610a6881611f52565b6006546001600160a01b036101009091041633146119655760405162461bcd60e51b81526004016105b190612e64565b6001600160a01b03166000908152601060205260409020805460ff19811660ff90911615179055565b600081815260046020526040902080546001600160a01b0319166001600160a01b03841690811790915581906119c382610bf6565b6001600160a01b03167f8c5be1e5ebec7d5bd14f71427d1e84f3dd0314c0f7b2291e5b200ac8c7c3b92560405160405180910390a45050565b6000818152600260205260408120546001600160a01b0316611a755760405162461bcd60e51b815260206004820152602c60248201527f4552433732313a206f70657261746f7220717565727920666f72206e6f6e657860448201526b34b9ba32b73a103a37b5b2b760a11b60648201526084016105b1565b6000611a8083610bf6565b9050806001600160a01b0316846001600160a01b03161480611abb5750836001600160a01b0316611ab0846107cb565b6001600160a01b0316145b80610ff25750610ff2818561139a565b826001600160a01b0316611ade82610bf6565b6001600160a01b031614611b205760405162461bcd60e51b81526020600482015260096024820152682727aa1027aba722a960b91b60448201526064016105b1565b6001600160a01b038216611b3357600080fd5b816001600160a01b0316836001600160a01b03161415611b5257600080fd5b611b5b82610ca2565b1580611b7f57506001600160a01b0382166000908152600f602052604090205460ff165b80611b8d5750600c5460ff16155b15611c4457611b9d60008261198e565b6001600160a01b0383166000908152600360205260408120805460019290611bc6908490612fa5565b90915550506001600160a01b0382166000908152600360205260408120805460019290611bf4908490612f79565b9091555050600081815260026020908152604080832080546001600160a01b0319166001600160a01b03871690811790915583526012825282208054600181018255908352912001819055611d99565b6001600160a01b0382166000908152601260205260408120805460139291908290611c7f57634e487b7160e01b600052603260045260246000fd5b9060005260206000200154815260200190815260200160002060000154600014611d1f576000818152601360208181526040808420546001600160a01b03871685526012909252832080549193918290611ce957634e487b7160e01b600052603260045260246000fd5b906000526020600020015481526020019081526020016000206000016000828254611d149190612f79565b925050819055611d8f565b6001600160a01b0382166000908152601260205260408120805460019260139290918290611d5d57634e487b7160e01b600052603260045260246000fd5b906000526020600020015481526020019081526020016000206000016000828254611d889190612f79565b9250508190555b50611d9981610b4e565b6001600160a01b03831660009081526012602052604081208054909190611dd057634e487b7160e01b600052603260045260246000fd5b906000526020600020016000905580826001600160a01b0316846001600160a01b03167fddf252ad1be2c89b69c2b068fc378daa952ba7f163c4a11628f55a4df523b3ef60405160405180910390a4505050565b60065460ff16611e6d5760405162461bcd60e51b815260206004820152601460248201527314185d5cd8589b194e881b9bdd081c185d5cd95960621b60448201526064016105b1565b6006805460ff191690557f5db9ee0a495bf2e6ff9c91a7834c1ba4fdd244a5e8aa4e537bd38aeae4b073aa335b6040516001600160a01b03909116815260200160405180910390a1565b6000611ec282610bf6565b9050611ecf60008361198e565b6001600160a01b0381166000908152600360205260408120805460019290611ef8908490612fa5565b909155505060008281526002602052604080822080546001600160a01b0319169055518391906001600160a01b038416907fddf252ad1be2c89b69c2b068fc378daa952ba7f163c4a11628f55a4df523b3ef908390a45050565b600680546001600160a01b03838116610100818102610100600160a81b031985161790945560405193909204169182907f8be0079c531659141344cd1fd0a4f28419497f9722a3daafe3b4186f6b6457e090600090a35050565b60065460ff1615611ff25760405162461bcd60e51b815260206004820152601060248201526f14185d5cd8589b194e881c185d5cd95960821b60448201526064016105b1565b6006805460ff191660011790557f62e78cea01bee320cd4e420270b5ea74000d11b0c9f74754ebdbfc544b05a258611e9a3390565b816001600160a01b0316836001600160a01b031614156120895760405162461bcd60e51b815260206004820152601960248201527f4552433732313a20617070726f766520746f2063616c6c65720000000000000060448201526064016105b1565b6001600160a01b03838116600081815260056020908152604080832094871680845294825291829020805460ff191686151590811790915591519182527f17307eab39ab6107e8899845ad3d59bd9653f200f220920489ca2b5937696c31910160405180910390a3505050565b6000826121038584612273565b14949350505050565b612117848484611acb565b6121238484848461232d565b61102c5760405162461bcd60e51b81526004016105b190612e12565b6060816121635750506040805180820190915260018152600360fc1b602082015290565b8160005b811561218d578061217781613023565b91506121869050600a83612f91565b9150612167565b60008167ffffffffffffffff8111156121b657634e487b7160e01b600052604160045260246000fd5b6040519080825280601f01601f1916602001820160405280156121e0576020820181803683370190505b5090505b8415610ff2576121f5600183612fa5565b9150612202600a8661303e565b61220d906030612f79565b60f81b81838151811061223057634e487b7160e01b600052603260045260246000fd5b60200101906001600160f81b031916908160001a905350612252600a86612f91565b94506121e4565b610db5828260405180602001604052806000815250612437565b600081815b84518110156123255760008582815181106122a357634e487b7160e01b600052603260045260246000fd5b602002602001015190508083116122e5576040805160208101859052908101829052606001604051602081830303815290604052805190602001209250612312565b60408051602081018390529081018490526060016040516020818303038152906040528051906020012092505b508061231d81613023565b915050612278565b509392505050565b60006001600160a01b0384163b1561242f57604051630a85bd0160e11b81526001600160a01b0385169063150b7a0290612371903390899088908890600401612d9a565b602060405180830381600087803b15801561238b57600080fd5b505af19250505080156123bb575060408051601f3d908101601f191682019092526123b891810190612a75565b60015b612415573d8080156123e9576040519150601f19603f3d011682016040523d82523d6000602084013e6123ee565b606091505b50805161240d5760405162461bcd60e51b81526004016105b190612e12565b805181602001fd5b6001600160e01b031916630a85bd0160e11b149050610ff2565b506001610ff2565b612441838361246a565b61244e600084848461232d565b6109715760405162461bcd60e51b81526004016105b190612e12565b6001600160a01b0382166124c05760405162461bcd60e51b815260206004820181905260248201527f4552433732313a206d696e7420746f20746865207a65726f206164647265737360448201526064016105b1565b6000818152600260205260409020546001600160a01b0316156125255760405162461bcd60e51b815260206004820152601c60248201527f4552433732313a20746f6b656e20616c7265616479206d696e7465640000000060448201526064016105b1565b6001600160a01b038216600090815260036020526040812080546001929061254e908490612f79565b909155505060008181526002602052604080822080546001600160a01b0319166001600160a01b03861690811790915590518392907fddf252ad1be2c89b69c2b068fc378daa952ba7f163c4a11628f55a4df523b3ef908290a45050565b8280546125b890612fe8565b90600052602060002090601f0160209004810192826125da5760008555612620565b82601f106125f35782800160ff19823516178555612620565b82800160010185558215612620579182015b82811115612620578235825591602001919060010190612605565b5061262c9291506126a4565b5090565b82805461263c90612fe8565b90600052602060002090601f01602090048101928261265e5760008555612620565b82601f1061267757805160ff1916838001178555612620565b82800160010185558215612620579182015b82811115612620578251825591602001919060010190612689565b5b8082111561262c57600081556001016126a5565b60008083601f8401126126ca578081fd5b50813567ffffffffffffffff8111156126e1578182fd5b6020830191508360208260051b85010111156126fc57600080fd5b9250929050565b8035801515811461271357600080fd5b919050565b600060208284031215612729578081fd5b813561273481613094565b9392505050565b6000806040838503121561274d578081fd5b823561275881613094565b9150602083013561276881613094565b809150509250929050565b600080600060608486031215612787578081fd5b833561279281613094565b925060208401356127a281613094565b929592945050506040919091013590565b600080600080608085870312156127c8578081fd5b84356127d381613094565b935060208501356127e381613094565b925060408501359150606085013567ffffffffffffffff80821115612806578283fd5b818701915087601f830112612819578283fd5b81358181111561282b5761282b61307e565b604051601f8201601f19908116603f011681019083821181831017156128535761285361307e565b816040528281528a602084870101111561286b578586fd5b82602086016020830137918201602001949094529598949750929550505050565b6000806040838503121561289e578182fd5b82356128a981613094565b91506128b760208401612703565b90509250929050565b600080604083850312156128d2578182fd5b82356128dd81613094565b946020939093013593505050565b600080602083850312156128fd578182fd5b823567ffffffffffffffff811115612913578283fd5b61291f858286016126b9565b90969095509350505050565b60008060008060608587031215612940578384fd5b843567ffffffffffffffff811115612956578485fd5b612962878288016126b9565b90955093505060208501359150604085013561297d81613094565b939692955090935050565b600080600080600080606087890312156129a0578182fd5b863567ffffffffffffffff808211156129b7578384fd5b6129c38a838b016126b9565b909850965060208901359150808211156129db578384fd5b6129e78a838b016126b9565b909650945060408901359150808211156129ff578384fd5b50612a0c89828a016126b9565b979a9699509497509295939492505050565b600060208284031215612a2f578081fd5b61273482612703565b60008060408385031215612a4a578182fd5b50508035926020909101359150565b600060208284031215612a6a578081fd5b8135612734816130a9565b600060208284031215612a86578081fd5b8151612734816130a9565b600060208284031215612aa2578081fd5b815161273481613094565b600060208284031215612abe578081fd5b813560038110612734578182fd5b600060208284031215612add578081fd5b5035919050565b60008151808452612afc816020860160208601612fbc565b601f01601f19169290920160200192915050565b8054600090600181811c9080831680612b2a57607f831692505b6020808410821415612b4a57634e487b7160e01b86526022600452602486fd5b818015612b5e5760018114612b6f57612b9c565b60ff19861689528489019650612b9c565b60008881526020902060005b86811015612b945781548b820152908501908301612b7b565b505084890196505b50505050505092915050565b7f646174613a6170706c69636174696f6e2f6a736f6e3b757466382c0000000000815260008251612be081601b850160208701612fbc565b91909101601b0192915050565b693d913730b6b2911d101160b11b815286516000906020612c1482600a8601838d01612fbc565b885191840191612c2a81600a8501848d01612fbc565b72111610113232b9b1b934b83a34b7b7111d101160691b600a93909101928301528751612c5d81601d8501848c01612fbc565b600a818401019250506c1116101134b6b0b3b2911d101160991b6013830152612c8881830188612b10565b91508551612c998184848a01612fbc565b632e706e6760e01b920191825261088b60f21b60048301528451612cc38160068501848901612fbc565b612cda60068285010161207d60f01b815260020190565b9b9a5050505050505050505050565b7f2261747472696275746573223a205b7b2274726169745f74797065223a20224681527503ab9b4b7b71021b7bab73a1116113b30b63ab2911d160551b602082015260008351612d40816036850160208801612fbc565b7f7d2c7b2274726169745f74797065223a202246616374696f6e222c2276616c756036918401918201526432911d101160d91b6056820152612d85605b820185612b10565b62227d5d60e81b815260030195945050505050565b6001600160a01b0385811682528416602082015260408101839052608060608201819052600090612dcd90830184612ae4565b9695505050505050565b6020810160038310612df957634e487b7160e01b600052602160045260246000fd5b91905290565b6020815260006127346020830184612ae4565b60208082526032908201527f4552433732313a207472616e7366657220746f206e6f6e20455243373231526560408201527131b2b4bb32b91034b6b83632b6b2b73a32b960711b606082015260800190565b6020808252818101527f4f776e61626c653a2063616c6c6572206973206e6f7420746865206f776e6572604082015260600190565b60208082526031908201527f4552433732313a207472616e736665722063616c6c6572206973206e6f74206f6040820152701ddb995c881b9bdc88185c1c1c9bdd9959607a1b606082015260800190565b848152608060208201526000612f036080830186612ae4565b8281036040840152612f158186612ae4565b90508281036060840152612f298185612ae4565b979650505050505050565b6000808335601e19843603018112612f4a578283fd5b83018035915067ffffffffffffffff821115612f64578283fd5b6020019150368190038213156126fc57600080fd5b60008219821115612f8c57612f8c613052565b500190565b600082612fa057612fa0613068565b500490565b600082821015612fb757612fb7613052565b500390565b60005b83811015612fd7578181015183820152602001612fbf565b8381111561102c5750506000910152565b600181811c90821680612ffc57607f821691505b6020821081141561301d57634e487b7160e01b600052602260045260246000fd5b50919050565b600060001982141561303757613037613052565b5060010190565b60008261304d5761304d613068565b500690565b634e487b7160e01b600052601160045260246000fd5b634e487b7160e01b600052601260045260246000fd5b634e487b7160e01b600052604160045260246000fd5b6001600160a01b0381168114610a6857600080fd5b6001600160e01b031981168114610a6857600080fdfe4f6e2d436861696e2053746f727974656c6c696e67204578706572696d656e742ea26469706673582212205c13377bb765e8fbb3f2f6dd984ee84e0400295cadabc2a6a690d22bcd5b1cc264736f6c6343000804003368747470733a2f2f746974616e626f726e65732e6865726f6b756170702e636f6d2f696d616765732f",
  "linkReferences": {},
  "deployedLinkReferences": {}
}